:100000000C9462000C948A000C948A000C948A0070
:100010000C948A000C948A000C948A000C948A0038
:100020000C948A000C948A000C948A000C948A0028
:100030000C948A000C948A000C948A000C948A0018
:100040000C943A040C948A000C9408040C94E20377
:100050000C948A000C948A000C948A000C948A00F8
:100060000C948A000C948A000000000024002700F1
:100070002A0000000000250028002B0000000008D6
:10008000000201000003040700000000000000005F
:1000900000000000230026002900040404040404D6
:1000A0000404020202020202030303030303010227
:1000B00004081020408001020408102001020408F6
:1000C0001020C90411241FBECFEFD8E0DEBFCDBF82
:1000D00011E0A0E0B1E0E2EBFFE002C005900D927C
:1000E000AE33B107D9F721E0AEE3B1E001C01D9214
:1000F000AE3FB207E1F710E0C2E6D0E004C02197BE
:10010000FE010E94D107C136D107C9F70E94180528
:100110000C94D7070C940000AF92BF92CF92DF925D
:10012000EF92FF920F931F93CF93DF936C017B01AC
:100130008B01040F151FEB015E01AE18BF08C0173D
:10014000D10759F06991D601ED91FC910190F081B0
:10015000E02DC6010995892B79F7C501DF91CF9173
:100160001F910F91FF90EF90DF90CF90BF90AF90D5
:100170000895FC01538D448D252F30E0842F90E0AD
:10018000821B930B541710F0CF9608950197089592
:10019000FC01918D828D981761F0A28DAE0FBF2F5B
:1001A000B11D5D968C91928D9F5F9F73928F90E0B1
:1001B00008958FEF9FEF0895FC01918D828D981720
:1001C00031F0828DE80FF11D858D90E008958FEF5D
:1001D0009FEF0895FC01918D228D892F90E0805C26
:1001E0009F4F821B91098F739927089589E491E0AD
:1001F0000E94EA0021E0892B09F420E0822F089573
:1002000080E090E0892B29F00E94F60081110C9487
:1002100000000895FC01A48DA80FB92FB11DA35AA9
:10022000BF4F2C91848D90E001968F739927848F16
:10023000A689B7892C93A089B1898C918370806439
:100240008C93938D848D981306C00288F389E02DDA
:1002500080818F7D80830895EF92FF920F931F938B
:10026000CF93DF93EC0181E0888F9B8D8C8D981369
:100270001AC0E889F989808185FF15C09FB7F89475
:10028000EE89FF896083E889F989808183708064C1
:1002900080839FBF81E090E0DF91CF911F910F910C
:1002A000FF90EF900895F62E0B8D10E00F5F1F4F1B
:1002B0000F731127E02E8C8D8E110CC00FB607FC2A
:1002C000FACFE889F989808185FFF5CFCE010E94B8
:1002D0000A01F1CFEB8DEC0FFD2FF11DE35AFF4F1B
:1002E000F0829FB7F8940B8FEA89FB898081806246
:1002F000CFCFCF93DF93EC01888D8823B9F0AA8903
:10030000BB89E889F9898C9185FD03C0808186FDD0
:100310000DC00FB607FCF7CF8C9185FFF2CF80811F
:1003200085FFEDCFCE010E940A01E9CFDF91CF9189
:10033000089590E0FC01E458FF4F2491FC01E25540
:10034000FF4F3491FC01E656FF4FE491EE23C9F0D4
:10035000222339F0233001F1A8F4213019F12230A1
:1003600029F1F0E0EE0FFF1FEE58FF4FA591B49179
:100370008FB7F894EC91611126C030953E233C93E1
:100380008FBF08952730A9F02830C9F0243049F7ED
:10039000809180008F7D03C0809180008F77809353
:1003A0008000DFCF84B58F7784BDDBCF84B58F7DB0
:1003B000FBCF8091B0008F778093B000D2CF809137
:1003C000B0008F7DF9CF3E2BDACFCF93DF9390E053
:1003D000FC01E255FF4F249186569F4FFC0184910A
:1003E0008823D1F090E0880F991FFC01E859FF4F56
:1003F000A591B491FC01EE58FF4FC591D4916111C4
:100400000EC09FB7F8948C91E22FE0958E238C93C9
:100410002881E223E8839FBFDF91CF9108958FB7B2
:10042000F894EC91E22BEC938FBFF6CF3FB7F894A2
:100430008091430190914401A0914501B091460102
:1004400026B5A89B05C02F3F19F00196A11DB11D2F
:100450003FBFBA2FA92F982F8827BC01CD01620F6B
:10046000711D811D911D42E0660F771F881F991F26
:100470004A95D1F70895089590E080E00895CF93CC
:10048000DF93EC0160E08E810E94990161E08E8132
:100490000E94990160E08E810E9499018BE891E0B1
:1004A0000197F1F7DF91CF910895CF92DF92EF920C
:1004B000FF920F931F93CF93DF936C017C0187E032
:1004C000E80EF11CD0E0C0E0062F10E0B8010C2EC1
:1004D00002C0759567950A94E2F76170F701819102
:1004E0007F010E9499012196C430D10579F7C60198
:1004F000DF91CF911F910F91FF90EF90DF90CF9000
:100500000C943F02CF92DF92EF92FF920F931F93D2
:10051000CF93DF93EC01F62E642F8C810E9499011A
:100520008D818F3F19F060E00E9499010F2D10E03E
:100530008F8584FF25C06E0187E0C80ED11CF12C89
:10054000E12CB8010E2C02C0759567950A94E2F76C
:100550006170F60181916F010E949901FFEFEF1A1E
:10056000FF0A88E0E816F10461F7CE01DF91CF9130
:100570001F910F91FF90EF90DF90CF900C943F026E
:10058000B80184E0759567958A95E1F7CE010E94E0
:1005900055026F2DCE01DF91CF911F910F91FF90EA
:1005A000EF90DF90CF900C94550240E0682F86EEDC
:1005B00091E00C948202CF93DF93823029F49091E2
:1005C000F50198609093F5018093F9011092FA017A
:1005D00080E48093FB0180E18093FC0180E58093BF
:1005E000FD0161E08091EA010E94E5018091EB014B
:1005F0008F3F19F061E00E94E50161E08091EC011C
:100600000E94E501C6EED1E09E01265E3140809158
:10061000F50184FD0BC084E090E02196281739078E
:1006200044F461E08E810E94E501EECF88E090E025
:10063000F4CF8BE39DE00197F1F760E08091EA0150
:100640000E94990160E08091EC010E9499018091E3
:10065000EB018F3F19F060E00E9499018091F50154
:1006600084FD39C063E086EE91E00E945502CBE440
:10067000D6E4CE010197F1F763E086EE91E00E94A7
:1006800055022197F1F763E086EE91E00E94550252
:1006900083E592E00197F1F762E086EE91E00E9437
:1006A00055028091F50180620E94D50284E080931A
:1006B000F6018CE00E94D50281E00E94D5028BE316
:1006C0009FE10197F1F782E08093F70186E0DF91E7
:1006D000CF910C94D50280620E94D5028BE496E4FF
:1006E0000197F1F78091F50180620E94D50283E5C0
:1006F00092E00197F1F78091F50180620E94D502A6
:10070000D0CF41E00E94820281E090E00895FB0199
:1007100001900020E9F73197AF01461B570BDC0130
:10072000ED91FC910280F381E02D09948F929F92CC
:10073000AF92BF92EF92FF920F931F93CF93DF93ED
:10074000CDB7DEB7A1970FB6F894DEBF0FBECDBF11
:100750007C01FA01CB0119A2223008F42AE08E01B3
:100760000F5D1F4F822E912CB12CA12CBF01A50132
:1007700094010E94AF07F901CA016A300CF5605D6F
:10078000D8016E938D01232B242B252B79F790E034
:1007900080E0109721F0BD01C7010E948703A19658
:1007A0000FB6F894DEBF0FBECDBFDF91CF911F9182
:1007B0000F91FF90EF90BF90AF909F908F90089512
:1007C000695CDECF1F920F920FB60F9211242F9308
:1007D0003F934F935F936F937F938F939F93AF93C9
:1007E000BF93EF93FF9389E491E00E940A01FF9188
:1007F000EF91BF91AF919F918F917F916F915F9199
:100800004F913F912F910F900FBE0F901F90189511
:100810001F920F920FB60F9211242F938F939F93D5
:10082000EF93FF93E0915901F0915A018081E0919B
:100830005F01F091600182FD1BC090818091620197
:100840008F5F8F7320916301821741F0E091620105
:10085000F0E0E75BFE4F958F80936201FF91EF918F
:100860009F918F912F910F900FBE0F901F90189511
:100870008081F4CF1F920F920FB60F9211242F9305
:100880003F938F939F93AF93BF9380913F0190913C
:100890004001A0914101B091420130913E0123E01D
:1008A000230F2D3758F50196A11DB11D20933E0150
:1008B00080933F0190934001A0934101B093420186
:1008C0008091430190914401A0914501B09146016E
:1008D0000196A11DB11D8093430190934401A09303
:1008E0004501B0934601BF91AF919F918F913F9188
:1008F0002F910F900FBE0F901F90189526E8230F91
:100900000296A11DB11DD2CFCF92DF92EF92FF923E
:100910000F931F93E82FF92F05C0015011092109EA
:10092000310961F1908196239417B9F305C0015004
:1009300011092109310911F1908196239413F7CF00
:10094000C12CD12CE12CF12C0AC08FEFC81AD80A87
:10095000E80AF80A0C151D052E053F0579F080817F
:100960008623841791F36C2D7D2D8E2D9F2D1F9145
:100970000F91FF90EF90DF90CF90089560E070E0CE
:1009800080E090E01F910F91FF90EF90DF90CF906B
:100990000895E9E4F1E01382128288EE93E0A0E08A
:1009A000B0E084839583A683B78384E091E091834C
:1009B000808385EC90E09587848784EC90E097872E
:1009C000868780EC90E0918B808B81EC90E0938B1C
:1009D000828B82EC90E0958B848B86EC90E0978BF9
:1009E000868B118E128E138E148EE6EEF1E013823A
:1009F000128286E191E09183808382E084838FEF8D
:100A0000858383E0868384E0878385E0808786E032
:100A1000818787E0828788E0838789E084878AE00E
:100A200085878BE0868780E1878781E00C94DB02F5
:100A3000789484B5826084BD84B5816084BD85B5B9
:100A4000826085BD85B5816085BD80916E008160C5
:100A500080936E001092810080918100826080936B
:100A6000810080918100816080938100809180006D
:100A70008160809380008091B10084608093B10098
:100A80008091B00081608093B00080917A00846092
:100A900080937A0080917A00826080937A008091BE
:100AA0007A00816080937A0080917A0080688093D8
:100AB0007A001092C10082E00E94DB02E1E08091A6
:100AC000F9018111E0E0E195F0E0EA51FE4F8489FF
:100AD00080680E94D502E0915901F0915A0182E0AC
:100AE0008083E0915501F09156011082E091570109
:100AF000F09158018FEC808310926101E0915D01CB
:100B0000F0915E0186E08083E0915B01F0915C01F1
:100B1000808180618083E0915B01F0915C01808144
:100B200088608083E0915B01F0915C018081806846
:100B30008083E0915B01F0915C0180818F7D8083F7
:100B400060E08CE00E94E50161E08DE00E94E5013B
:100B5000C3E2D0E026EA222E20E0322E3BE3A32E91
:100B60003FE1B32E40E0842E40E0942E60E08DE023
:100B70000E949901CE010197F1F761E08DE00E949A
:100B80009901CE010197F1F760E08DE00E94990193
:100B9000EAEBF0E06491F1018491E82FF0E0EE0FD0
:100BA000FF1FE057FF4F8591949100E412E42FE07E
:100BB00030E0462F0E94840461157105810591057E
:100BC00029F06F5F7F4F8F4F9F4F9F70072E000C54
:100BD000880B990B0E94B60626E933E44BE05DE3EF
:100BE0000E941A0720E030E040E05FE30E941A070D
:100BF0000E947E0670934801609347016EE171E0A8
:100C000089E491E00E948703C0904701D090480199
:100C10000D2C000CEE08FF082AE0B701A601F7FE34
:100C20000DC06DE289E491E00E942C014427552714
:100C3000BA014C195D096E097F092AE089E491E047
:100C40000E94960363E371E086EE91E00E948703C1
:100C5000C0904701D09048010D2C000CEE08FF0811
:100C60002AE0B701A601F7FE0EC041E06DE286EE74
:100C700091E00E94820244275527BA014C195D0970
:100C80006E097F092AE086EE91E00E9496030E9499
:100C900016022B013C0188EEC82E83E0D82EE12CF1
:100CA000F12C0E9416026419750986099709683E9D
:100CB000734081059105A8F3F1E0CF1AD108E1084E
:100CC000F10828EE420E23E0521E611C711CC11473
:100CD000D104E104F10429F781E00E94D502C501A5
:100CE0000197F1F78114910409F440CF0E94F600B6
:100CF000882309F43BCF0E94000038CF0E9485066C
:100D00006894B1110C94140708950E94F90688F0B4
:100D10009F5798F0B92F9927B751B0F0E1F0660FBF
:100D2000771F881F991F1AF0BA95C9F714C0B13000
:100D300091F00E941307B1E008950C941307672FF8
:100D4000782F8827B85F39F0B93FCCF3869577952F
:100D50006795B395D9F73EF4909580957095619518
:100D60007F4F8F4F9F4F0895E89409C097FB3EF443
:100D700090958095709561957F4F8F4F9F4F9923E8
:100D8000A9F0F92F96E9BB279395F6958795779566
:100D90006795B795F111F8CFFAF4BB0F11F460FF26
:100DA0001BC06F5F7F4F8F4F9F4F16C0882311F07E
:100DB00096E911C0772321F09EE8872F762F05C092
:100DC000662371F096E8862F70E060E02AF09A952D
:100DD000660F771F881FDAF7880F9695879597F922
:100DE000089557FD9058440F551F59F05F3F71F01B
:100DF0004795880F97FB991F61F09F3F79F0879582
:100E00000895121613061406551FF2CF4695F1DF0A
:100E100008C0161617061806991FF1CF869571059A
:100E2000610508940895E894BB2766277727CB01CE
:100E300097F908950E942D070C949E070E94900731
:100E400038F00E94970720F0952311F00C94870743
:100E50000C948D0711240C9414070E94F10670F372
:100E6000959FC1F3950F50E0551F629FF001729F4F
:100E7000BB27F00DB11D639FAA27F00DB11DAA1F5E
:100E8000649F6627B00DA11D661F829F2227B00DAB
:100E9000A11D621F739FB00DA11D621F839FA00D36
:100EA000611D221F749F3327A00D611D231F849F86
:100EB000600D211D822F762F6A2F11249F575040DD
:100EC0009AF0F1F088234AF0EE0FFF1FBB1F661F58
:100ED000771F881F91505040A9F79E3F510580F021
:100EE0000C9487070C9414075F3FE4F3983ED4F307
:100EF000869577956795B795F795E7959F5FC1F7C5
:100F0000FE2B880F911D9695879597F9089597F96F
:100F10009F6780E870E060E008959FEF80EC08959F
:100F200000240A94161617061806090608950024C8
:100F30000A9412161306140605060895092E039442
:100F4000000C11F4882352F0BB0F40F4BF2B11F4B6
:100F500060FF04C06F5F7F4F8F4F9F4F0895A1E2E6
:100F60001A2EAA1BBB1BFD010DC0AA1FBB1FEE1F23
:100F7000FF1FA217B307E407F50720F0A21BB30B6E
:100F8000E40BF50B661F771F881F991F1A9469F7EA
:100F900060957095809590959B01AC01BD01CF0146
:100FA0000895EE0FFF1F0590F491E02D0994F89439
:020FB000FFCF71
:100FB200000000002C018C00B9007901EA00C80091
:100FC200DC000000000081038C003C023B026F62E7
:100FD2006A65637420646574656374656420617412
:0E0FE20020612064697374616E63653D0000D8
:00000001FF
